:0200000470107A
:1000000000000120A1471070CD3E1070CF3E10704F
:10001000D13E1070D33E1070D53E1070000000002D
:10002000000000000000000000000000E12C117042
:10003000D73E107000000000712D11700F25117057
:10004000F147107000000000F1471070F147107088
:02000004701179
:100AF000C230157001292DE9F84305460E4614460B
:1013E000F9E700BFDB301570E83015702DE9F04FDC
:1016C0001346ECE7D4301570CB30157038B50D46A5
:1019D000DB3015702DE9FF41CDE9001003A8144656
:101FB00074041570E4D70090024B53F8200000F031
:02000004701278
:100530001D22C0E91F22C0E9212270471424167031
:10165000651612703B161270691612702F161270F2
:1016A00021F000BF83161270BD1612708D161270D5
:1016B000B916127000207047012070474FF0FF30BC
:101BC00038BD00BF4021029000000090F1FB117071
:101BD000B800009044210290EFFB1170BC0000900F
:02000004701377 
:103D900000221AA90AE000BF942A0290C0251670DA
:1053A00009000001ACC52737B825167000B41F945A
:1057300004620101782516700622880A0616580AA6
:10575000382516700620800AA08104050010001864
:10613000D4041570C4041570942A029000007F43A3
:10AD60003C05157000007F430000000000007E429B